{
  "contractName": "Blockchain",
  "abi": [
    {
      "inputs": [
        {
          "internalType": "uint256",
          "name": "",
          "type": "uint256"
        }
      ],
      "name": "blockchain",
      "outputs": [
        {
          "internalType": "bytes32",
          "name": "",
          "type": "bytes32"
        }
      ],
      "stateMutability": "view",
      "type": "function"
    },
    {
      "inputs": [],
      "name": "chainLength",
      "outputs": [
        {
          "internalType": "uint256",
          "name": "",
          "type": "uint256"
        }
      ],
      "stateMutability": "view",
      "type": "function"
    },
    {
      "inputs": [
        {
          "internalType": "bytes32",
          "name": "data",
          "type": "bytes32"
        }
      ],
      "name": "createBlock",
      "outputs": [],
      "stateMutability": "nonpayable",
      "type": "function"
    },
    {
      "inputs": [],
      "name": "printBlockchain",
      "outputs": [
        {
          "internalType": "bytes32[]",
          "name": "",
          "type": "bytes32[]"
        }
      ],
      "stateMutability": "view",
      "type": "function"
    }
  ],
  "bytecode": "0x608060405234801561001057600080fd5b506104df806100206000396000f3fe608060405234801561001057600080fd5b506004361061004c5760003560e01c8063219ee89c146100515780637ba373301461006f578063a22182221461008b578063c25b1eaf146100a9575b600080fd5b6100596100d9565b60405161006691906101ee565b60405180910390f35b61008960048036038101906100849190610244565b6100df565b005b610093610112565b6040516100a0919061032f565b60405180910390f35b6100c360048036038101906100be919061037d565b6101bd565b6040516100d091906103b9565b60405180910390f35b60005481565b8060016000805481526020019081526020016000208190555060008081548092919061010a90610403565b919050555050565b60606000805467ffffffffffffffff8111156101315761013061044b565b5b60405190808252806020026020018201604052801561015f5781602001602082028036833780820191505090505b50905060005b6000548110156101b55760016000828152602001908152602001600020548282815181106101965761019561047a565b5b60200260200101818152505080806101ad90610403565b915050610165565b508091505090565b60016020528060005260406000206000915090505481565b6000819050919050565b6101e8816101d5565b82525050565b600060208201905061020360008301846101df565b92915050565b600080fd5b6000819050919050565b6102218161020e565b811461022c57600080fd5b50565b60008135905061023e81610218565b92915050565b60006020828403121561025a57610259610209565b5b60006102688482850161022f565b91505092915050565b600081519050919050565b600082825260208201905092915050565b6000819050602082019050919050565b6102a68161020e565b82525050565b60006102b8838361029d565b60208301905092915050565b6000602082019050919050565b60006102dc82610271565b6102e6818561027c565b93506102f18361028d565b8060005b8381101561032257815161030988826102ac565b9750610314836102c4565b9250506001810190506102f5565b5085935050505092915050565b6000602082019050818103600083015261034981846102d1565b905092915050565b61035a816101d5565b811461036557600080fd5b50565b60008135905061037781610351565b92915050565b60006020828403121561039357610392610209565b5b60006103a184828501610368565b91505092915050565b6103b38161020e565b82525050565b60006020820190506103ce60008301846103aa565b92915050565b7f4e487b7100000000000000000000000000000000000000000000000000000000600052601160045260246000fd5b600061040e826101d5565b91507fffffffffffffffffffffffffffffffffffffffffffffffffffffffffffffffff82036104405761043f6103d4565b5b600182019050919050565b7f4e487b7100000000000000000000000000000000000000000000000000000000600052604160045260246000fd5b7f4e487b7100000000000000000000000000000000000000000000000000000000600052603260045260246000fdfea264697066735822122002ca6fd5d01d69920fd092b5e2e8073a8ae96954302d214b24f8746796368b0b64736f6c63430008120033",
  "immutableReferences": {},
  "source": "//SPDX-License-Identifier: MIT\r\npragma solidity ^0.8.0;\r\n\r\ncontract Blockchain {\r\n    uint256 public chainLength;\r\n    mapping(uint256 => bytes32) public blockchain;\r\n\r\n    function createBlock(bytes32 data) public {\r\n        blockchain[chainLength] = data;\r\n        chainLength++;\r\n    }\r\n\r\n    function printBlockchain() public view returns (bytes32[] memory) {\r\n        bytes32[] memory result = new bytes32[](chainLength);\r\n\r\n        for (uint256 i = 0; i < chainLength; i++) {\r\n            result[i] = blockchain[i];\r\n        }\r\n\r\n        return result;\r\n    }\r\n}\r\n\r\n\r\n\r\n",
  "sourcePath": "C:\\Users\\Sayan\\Desktop\\projecttry\\try4\\contracts\\Blockchain.sol",
  "compiler": {
    "name": "solc",
    "version": "0.8.18+commit.87f61d96.Emscripten.clang"
  },
  "schemaVersion": "3.4.11",
  "updatedAt": "2023-02-22T11:56:11.131Z",
  "devdoc": {
    "kind": "dev",
    "methods": {},
    "version": 1
  },
  "userdoc": {
    "kind": "user",
    "methods": {},
    "version": 1
  }
}