{
  "contractName": "SimpleBlockchain",
  "abi": [
    {
      "inputs": [
        {
          "internalType": "uint256",
          "name": "",
          "type": "uint256"
        }
      ],
      "name": "blockchain",
      "outputs": [
        {
          "internalType": "uint256",
          "name": "blockNumber",
          "type": "uint256"
        },
        {
          "internalType": "bytes32",
          "name": "data",
          "type": "bytes32"
        }
      ],
      "stateMutability": "view",
      "type": "function",
      "constant": true
    },
    {
      "inputs": [
        {
          "internalType": "uint256",
          "name": "",
          "type": "uint256"
        }
      ],
      "name": "data",
      "outputs": [
        {
          "internalType": "bytes32",
          "name": "",
          "type": "bytes32"
        }
      ],
      "stateMutability": "view",
      "type": "function",
      "constant": true
    },
    {
      "inputs": [
        {
          "internalType": "uint256",
          "name": "",
          "type": "uint256"
        }
      ],
      "name": "maliciousUserBlockNumbers",
      "outputs": [
        {
          "internalType": "uint256",
          "name": "",
          "type": "uint256"
        }
      ],
      "stateMutability": "view",
      "type": "function",
      "constant": true
    },
    {
      "inputs": [],
      "name": "numBlocks",
      "outputs": [
        {
          "internalType": "uint256",
          "name": "",
          "type": "uint256"
        }
      ],
      "stateMutability": "view",
      "type": "function",
      "constant": true
    },
    {
      "inputs": [
        {
          "internalType": "uint256",
          "name": "_numBlocks",
          "type": "uint256"
        }
      ],
      "name": "createBlockchain",
      "outputs": [],
      "stateMutability": "nonpayable",
      "type": "function"
    },
    {
      "inputs": [
        {
          "internalType": "uint256",
          "name": "_blockNumber",
          "type": "uint256"
        },
        {
          "internalType": "bytes32",
          "name": "_data",
          "type": "bytes32"
        }
      ],
      "name": "addBlock",
      "outputs": [],
      "stateMutability": "nonpayable",
      "type": "function"
    },
    {
      "inputs": [
        {
          "internalType": "uint256",
          "name": "blockNumber",
          "type": "uint256"
        }
      ],
      "name": "printBlock",
      "outputs": [
        {
          "internalType": "uint256",
          "name": "",
          "type": "uint256"
        },
        {
          "internalType": "bytes32",
          "name": "",
          "type": "bytes32"
        }
      ],
      "stateMutability": "view",
      "type": "function",
      "constant": true
    },
    {
      "inputs": [],
      "name": "printBlockchain",
      "outputs": [
        {
          "components": [
            {
              "internalType": "uint256",
              "name": "blockNumber",
              "type": "uint256"
            },
            {
              "internalType": "bytes32",
              "name": "data",
              "type": "bytes32"
            }
          ],
          "internalType": "struct SimpleBlockchain.Block[]",
          "name": "",
          "type": "tuple[]"
        }
      ],
      "stateMutability": "view",
      "type": "function",
      "constant": true
    },
    {
      "inputs": [
        {
          "internalType": "bytes32",
          "name": "nonUniqueBlockData",
          "type": "bytes32"
        }
      ],
      "name": "findMaliciousUser",
      "outputs": [
        {
          "components": [
            {
              "internalType": "uint256",
              "name": "blockNumber",
              "type": "uint256"
            },
            {
              "internalType": "bytes32",
              "name": "blockData",
              "type": "bytes32"
            }
          ],
          "internalType": "struct SimpleBlockchain.BlockInfo[]",
          "name": "",
          "type": "tuple[]"
        }
      ],
      "stateMutability": "view",
      "type": "function",
      "constant": true
    },
    {
      "inputs": [],
      "name": "errorBlocks",
      "outputs": [
        {
          "components": [
            {
              "internalType": "uint256",
              "name": "blockNumber",
              "type": "uint256"
            },
            {
              "internalType": "bytes32",
              "name": "data",
              "type": "bytes32"
            }
          ],
          "internalType": "struct SimpleBlockchain.Block[]",
          "name": "",
          "type": "tuple[]"
        }
      ],
      "stateMutability": "view",
      "type": "function",
      "constant": true
    },
    {
      "inputs": [],
      "name": "add",
      "outputs": [],
      "stateMutability": "nonpayable",
      "type": "function"
    },
    {
      "inputs": [],
      "name": "fusion",
      "outputs": [
        {
          "internalType": "bytes32",
          "name": "",
          "type": "bytes32"
        }
      ],
      "stateMutability": "view",
      "type": "function",
      "constant": true
    },
    {
      "inputs": [],
      "name": "main",
      "outputs": [],
      "stateMutability": "nonpayable",
      "type": "function"
    }
  ],
  "bytecode": "0x6080604052604051806102c001604052807f100111111111111111111111111011111111111111111111111111111111111160001b81526020017f100111111111111111111111111111110000000000000000000000011111111160001b81526020017f100111111111111111111111111111110000000000000000000000011111111160001b81526020017f100111111111111111111111111111111111111111111111111111111111111160001b81526020017f100111111111111111111111111111110000000000000000000000011111111160001b81526020017f100111111111111111111111111111111111111111111111111111111111111160001b81526020017f100111111111111111111111111111111111111011111111111111111111111160001b81526020017f100111111111111111111111111111111111111111111111111111111111111160001b81526020017f100111111111111111111111111111110000000000000000000000011111111160001b81526020017f100111111111111111111111111111110000000000000000000000011111111160001b81526020017f100111111111111111111111111111110000000000000000000000011111111160001b81526020017f100111111111111111111111111111110000000000000000000000011111111160001b81526020017f100111111111111111111111111111110000000000000000000000011111111160001b81526020017f100111111111111111111111111111111111111111111111111111111111111160001b81526020017f100111111111111111111111111111110000000000000000000000011111111160001b81526020017f100111111111111111111111111111110000000000000000000000011111111160001b81526020017f100111111111111111111111111111110000000000000000000000011111111160001b81526020017f100111111111111111111111111111110000000000000000000000011111111160001b81526020017f100111111111111111111111111111110000000000000000000000011111111160001b81526020017f100111111111111111111111111111110000000000000000000000011111111160001b81526020017f100111111111111111111111111111110000000000000000000000011111111160001b81526020017f100111111111111111111111111111111111111111111111111111111111111160001b8152506001906016620003a6929190620003e2565b507f100111111111111111111111111111110000000000000000000000011111111160001b600455348015620003db57600080fd5b5062000453565b82805482825590600052602060002090810192821562000421579160200282015b828111156200042057825182559160200191906001019062000403565b5b50905062000430919062000434565b5090565b5b808211156200044f57600081600090555060010162000435565b5090565b61184a80620004636000396000f3fe608060405234801561001057600080fd5b50600436106100cf5760003560e01c8063930fc2161161008c578063c626025111610066578063c626025114610202578063dffeadd014610220578063e42a8f451461022a578063f0ba84401461025a576100cf565b8063930fc21614610195578063a2218222146101b3578063c25b1eaf146101d1576100cf565b806322f8db6b146100d45780634ebc0892146101045780634f2be91f146101205780634faaff171461012a5780635895ccd1146101465780636a9a31de14610164575b600080fd5b6100ee60048036038101906100e991906111fd565b61028a565b6040516100fb9190611239565b60405180910390f35b61011e600480360381019061011991906111fd565b6102ae565b005b610128610355565b005b610144600480360381019061013f919061128a565b6103a7565b005b61014e61045d565b60405161015b91906113c6565b60405180910390f35b61017e600480360381019061017991906111fd565b610815565b60405161018c9291906113f7565b60405180910390f35b61019d6108b5565b6040516101aa9190611239565b60405180910390f35b6101bb6108bb565b6040516101c891906113c6565b60405180910390f35b6101eb60048036038101906101e691906111fd565b61092e565b6040516101f99291906113f7565b60405180910390f35b61020a610962565b6040516102179190611420565b60405180910390f35b610228610a77565b005b610244600480360381019061023f919061143b565b610ad2565b6040516102519190611546565b60405180910390f35b610274600480360381019061026f91906111fd565b611021565b6040516102819190611420565b60405180910390f35b6002818154811061029a57600080fd5b906000526020600020016000915090505481565b8060008190555060005b6000548110156103515760036040518060400160405280838152602001836040516020016102e69190611589565b604051602081830303815290604052805190602001208152509080600181540180825580915050600190039060005260206000209060020201600090919091909150600082015181600001556020820151816001015550508080610349906115d3565b9150506102b8565b5050565b6000600190505b6001805490508110156103a45761039181600183815481106103815761038061161b565b5b90600052602060002001546103a7565b808061039c906115d3565b91505061035c565b50565b6000548210156103ec576040517f08c379a00000000000000000000000000000000000000000000000000000000081526004016103e3906116a7565b60405180910390fd5b6003604051806040016040528084815260200183815250908060018154018082558091505060019003906000526020600020906002020160009091909190915060008201518160000155602082015181600101555050600080815480929190610454906115d3565b91905055505050565b60606000805467ffffffffffffffff81111561047c5761047b6116c7565b5b6040519080825280602002602001820160405280156104b557816020015b6104a2611188565b81526020019060019003908161049a5790505b509050600080805467ffffffffffffffff8111156104d6576104d56116c7565b5b60405190808252806020026020018201604052801561050f57816020015b6104fc611188565b8152602001906001900390816104f45790505b5090506000805b6000548110156106a85760006001905060005b6000548110156105ad5780831415801561058c5750600381815481106105525761055161161b565b5b906000526020600020906002020160010154600384815481106105785761057761161b565b5b906000526020600020906002020160010154145b1561059a57600091506105ad565b80806105a5906115d3565b915050610529565b50801561062657600382815481106105c8576105c761161b565b5b9060005260206000209060020201604051806040016040529081600082015481526020016001820154815250508686815181106106085761060761161b565b5b6020026020010181905250848061061e906115d3565b955050610694565b6003828154811061063a5761063961161b565b5b90600052602060002090600202016040518060400160405290816000820154815260200160018201548152505084848151811061067a5761067961161b565b5b60200260200101819052508280610690906115d3565b9350505b5080806106a0906115d3565b915050610516565b5060008367ffffffffffffffff8111156106c5576106c46116c7565b5b6040519080825280602002602001820160405280156106fe57816020015b6106eb611188565b8152602001906001900390816106e35790505b50905060005b848110156107585785818151811061071f5761071e61161b565b5b602002602001015182828151811061073a5761073961161b565b5b60200260200101819052508080610750906115d3565b915050610704565b5060008267ffffffffffffffff811115610775576107746116c7565b5b6040519080825280602002602001820160405280156107ae57816020015b61079b611188565b8152602001906001900390816107935790505b50905060005b83811015610808578481815181106107cf576107ce61161b565b5b60200260200101518282815181106107ea576107e961161b565b5b60200260200101819052508080610800906115d3565b9150506107b4565b5081965050505050505090565b600080600054831061085c576040517f08c379a000000000000000000000000000000000000000000000000000000000815260040161085390611742565b60405180910390fd5b6000600384815481106108725761087161161b565b5b9060005260206000209060020201604051806040016040529081600082015481526020016001820154815250509050806000015181602001519250925050915091565b60005481565b60606003805480602002602001604051908101604052809291908181526020016000905b82821015610925578382906000526020600020906002020160405180604001604052908160008201548152602001600182015481525050815260200190600101906108df565b50505050905090565b6003818154811061093e57600080fd5b90600052602060002090600202016000915090508060000154908060010154905082565b6000807f100111111111111111111111111111110000000000000000000000011111111160001b9050600061099682610ad2565b9050600060036000815481106109af576109ae61161b565b5b906000526020600020906002020160010154905060005b600380549050811015610a6d576000805b8451811015610a2157828582815181106109f4576109f361161b565b5b60200260200101516000015103610a0e5760019150610a21565b8080610a19906115d3565b9150506109d7565b508015610a2e5750610a5a565b60038281548110610a4257610a4161161b565b5b90600052602060002090600202016001015483169250505b8080610a65906115d3565b9150506109c6565b5080935050505090565b610a7f610355565b610a876108bb565b50610a9061045d565b50610abd7f100111111111111111111111111111110000000000000000000000011111111160001b610ad2565b50610ac66108bb565b50610acf610962565b50565b6060600082604051602001610ae79190611783565b6040516020818303038152906040529050600060088251610b08919061179e565b67ffffffffffffffff811115610b2157610b206116c7565b5b6040519080825280601f01601f191660200182016040528015610b535781602001600182028036833780820191505090505b50905060005b8251811015610c37576000610b8a848381518110610b7a57610b7961161b565b5b602001015160f81c60f81b611045565b905060005b6008811015610c2257818181518110610bab57610baa61161b565b5b602001015160f81c60f81b8482600886610bc5919061179e565b610bcf91906117e0565b81518110610be057610bdf61161b565b5b60200101907effffffffffffffffffffffffffffffffffffffffffffffffffffffffffffff1916908160001a9053508080610c1a906115d3565b915050610b8f565b50508080610c2f906115d3565b915050610b59565b506000805467ffffffffffffffff811115610c5557610c546116c7565b5b604051908082528060200260200182016040528015610c8e57816020015b610c7b6111a5565b815260200190600190039081610c735790505b5090506000805b600054811015610f6357600060038281548110610cb557610cb461161b565b5b9060005260206000209060020201600101549050600081604051602001610cdc9190611783565b6040516020818303038152906040529050600060088251610cfd919061179e565b67ffffffffffffffff811115610d1657610d156116c7565b5b6040519080825280601f01601f191660200182016040528015610d485781602001600182028036833780820191505090505b50905060005b8251811015610e2c576000610d7f848381518110610d6f57610d6e61161b565b5b602001015160f81c60f81b611045565b905060005b6008811015610e1757818181518110610da057610d9f61161b565b5b602001015160f81c60f81b8482600886610dba919061179e565b610dc491906117e0565b81518110610dd557610dd461161b565b5b60200101907effffffffffffffffffffffffffffffffffffffffffffffffffffffffffffff1916908160001a9053508080610e0f906115d3565b915050610d84565b50508080610e24906115d3565b915050610d4e565b506000805b885181108015610e42575060078211155b15610eee57888181518110610e5a57610e5961161b565b5b602001015160f81c60f81b7effffffffffffffffffffffffffffffffffffffffffffffffffffffffffffff1916838281518110610e9a57610e9961161b565b5b602001015160f81c60f81b7effffffffffffffffffffffffffffffffffffffffffffffffffffffffffffff191614610edb578180610ed7906115d3565b9250505b8080610ee6906115d3565b915050610e31565b506007811115610f4c576000604051806040016040528087610f0f906115d3565b975087815260200186815250905080888881518110610f3157610f3061161b565b5b60200260200101819052508680610f47906115d3565b975050505b505050508080610f5b906115d3565b915050610c95565b5060008167ffffffffffffffff811115610f8057610f7f6116c7565b5b604051908082528060200260200182016040528015610fb957816020015b610fa66111a5565b815260200190600190039081610f9e5790505b50905060005b8281101561101357838181518110610fda57610fd961161b565b5b6020026020010151828281518110610ff557610ff461161b565b5b6020026020010181905250808061100b906115d3565b915050610fbf565b508095505050505050919050565b6001818154811061103157600080fd5b906000526020600020016000915090505481565b60606000600867ffffffffffffffff811115611064576110636116c7565b5b6040519080825280601f01601f1916602001820160405280156110965781602001600182028036833780820191505090505b50905060005b600881101561117e57600060f81b8160ff16600160ff16901b60f81b85167effffffffffffffffffffffffffffffffffffffffffffffffffffffffffffff191603611107577f3000000000000000000000000000000000000000000000000000000000000000611129565b7f31000000000000000000000000000000000000000000000000000000000000005b82828151811061113c5761113b61161b565b5b60200101907effffffffffffffffffffffffffffffffffffffffffffffffffffffffffffff1916908160001a9053508080611176906115d3565b91505061109c565b5080915050919050565b604051806040016040528060008152602001600080191681525090565b604051806040016040528060008152602001600080191681525090565b600080fd5b6000819050919050565b6111da816111c7565b81146111e557600080fd5b50565b6000813590506111f7816111d1565b92915050565b600060208284031215611213576112126111c2565b5b6000611221848285016111e8565b91505092915050565b611233816111c7565b82525050565b600060208201905061124e600083018461122a565b92915050565b6000819050919050565b61126781611254565b811461127257600080fd5b50565b6000813590506112848161125e565b92915050565b600080604083850312156112a1576112a06111c2565b5b60006112af858286016111e8565b92505060206112c085828601611275565b9150509250929050565b600081519050919050565b600082825260208201905092915050565b6000819050602082019050919050565b6112ff816111c7565b82525050565b61130e81611254565b82525050565b60408201600082015161132a60008501826112f6565b50602082015161133d6020850182611305565b50505050565b600061134f8383611314565b60408301905092915050565b6000602082019050919050565b6000611373826112ca565b61137d81856112d5565b9350611388836112e6565b8060005b838110156113b95781516113a08882611343565b97506113ab8361135b565b92505060018101905061138c565b5085935050505092915050565b600060208201905081810360008301526113e08184611368565b905092915050565b6113f181611254565b82525050565b600060408201905061140c600083018561122a565b61141960208301846113e8565b9392505050565b600060208201905061143560008301846113e8565b92915050565b600060208284031215611451576114506111c2565b5b600061145f84828501611275565b91505092915050565b600081519050919050565b600082825260208201905092915050565b6000819050602082019050919050565b6040820160008201516114aa60008501826112f6565b5060208201516114bd6020850182611305565b50505050565b60006114cf8383611494565b60408301905092915050565b6000602082019050919050565b60006114f382611468565b6114fd8185611473565b935061150883611484565b8060005b8381101561153957815161152088826114c3565b975061152b836114db565b92505060018101905061150c565b5085935050505092915050565b6000602082019050818103600083015261156081846114e8565b905092915050565b6000819050919050565b61158361157e826111c7565b611568565b82525050565b60006115958284611572565b60208201915081905092915050565b7f4e487b7100000000000000000000000000000000000000000000000000000000600052601160045260246000fd5b60006115de826111c7565b91507fffffffffffffffffffffffffffffffffffffffffffffffffffffffffffffffff82036116105761160f6115a4565b5b600182019050919050565b7f4e487b7100000000000000000000000000000000000000000000000000000000600052603260045260246000fd5b600082825260208201905092915050565b7f426c6f636b206e756d62657220616c7265616479206578697374732e00000000600082015250565b6000611691601c8361164a565b915061169c8261165b565b602082019050919050565b600060208201905081810360008301526116c081611684565b9050919050565b7f4e487b7100000000000000000000000000000000000000000000000000000000600052604160045260246000fd5b7f426c6f636b206e756d626572206973206f7574206f662072616e67652e000000600082015250565b600061172c601d8361164a565b9150611737826116f6565b602082019050919050565b6000602082019050818103600083015261175b8161171f565b9050919050565b6000819050919050565b61177d61177882611254565b611762565b82525050565b600061178f828461176c565b60208201915081905092915050565b60006117a9826111c7565b91506117b4836111c7565b92508282026117c2816111c7565b915082820484148315176117d9576117d86115a4565b5b5092915050565b60006117eb826111c7565b91506117f6836111c7565b925082820190508082111561180e5761180d6115a4565b5b9291505056fea2646970667358221220f825479a8ded8a1ab1245b54ae28a5873f18297b0d17895dc6144334a09c921964736f6c63430008120033",
  "immutableReferences": {},
  "source": "// SPDX-License-Identifier: MIT\r\npragma solidity ^0.8.0;\r\n// import \"hardhat/console.sol\"; \r\n\r\ncontract SimpleBlockchain {\r\n    \r\n\r\n\r\n\r\n\r\n\r\n\r\n\r\n    uint256 public numBlocks;\r\n\r\n    // uint256[] public records;\r\n\r\n\r\n\r\n\r\n    bytes32[] public data = [      \r\n    bytes32(0x1001111111111111111111111110111111111111111111111111111111111111),        \r\n    bytes32(0x1001111111111111111111111111111100000000000000000000000111111111),        \r\n    bytes32(0x1001111111111111111111111111111100000000000000000000000111111111),        \r\n    // bytes32(0x1001111111111111111111111111111111111111111111111111111111111111),        \r\n    // bytes32(0x1001111111111111111111111111111111111111111111111111111111111111),\r\n    // bytes32(0x1001111111111111111111111111111111111111111111111111111111111111),        \r\n    bytes32(0x1001111111111111111111111111111111111111111111111111111111111111),        \r\n    bytes32(0x1001111111111111111111111111111100000000000000000000000111111111),        \r\n    bytes32(0x1001111111111111111111111111111111111111111111111111111111111111),\r\n    bytes32(0x1001111111111111111111111111111111111110111111111111111111111111),        \r\n    // bytes32(0x1001111111111111111111111111111111111111111111111111111111111111),        \r\n    bytes32(0x1001111111111111111111111111111111111111111111111111111111111111),\r\n    // bytes32(0x1001111111111111111111111111111111111111111111111111111111111111),\r\n    bytes32(0x1001111111111111111111111111111100000000000000000000000111111111),\r\n    // bytes32(0x1001111111111111111111111111111111111111111111111111111111111111),\r\n    // bytes32(0x1001111111111111111111111111111111111111111111111111111111111111),\r\n    bytes32(0x1001111111111111111111111111111100000000000000000000000111111111),\r\n    bytes32(0x1001111111111111111111111111111100000000000000000000000111111111),\r\n    bytes32(0x1001111111111111111111111111111100000000000000000000000111111111),\r\n    bytes32(0x1001111111111111111111111111111100000000000000000000000111111111),\r\n    bytes32(0x1001111111111111111111111111111111111111111111111111111111111111),\r\n    bytes32(0x1001111111111111111111111111111100000000000000000000000111111111),\r\n    bytes32(0x1001111111111111111111111111111100000000000000000000000111111111),\r\n    // bytes32(0x1001111111111111111111111111111111111111111111111111111111111111),        \r\n    // bytes32(0x1001111111111111111111111111111111111111111111111111111111111111),        \r\n    // bytes32(0x1001111111111111111111111111111111111111111111111111111111111111),\r\n    // bytes32(0x1001111111111111111111111111111111111111111111111111111111111111),\r\n    // bytes32(0x1001111111111111111111111111111111111111111111111111111111111111),        \r\n    // bytes32(0x1001111111111111111111111111111111111111111111111111111111111111),        \r\n    // bytes32(0x1001111111111111111111111111111111111111111111111111111111111111),\r\n    // bytes32(0x1001111111111111111111111111111111111111111111111111111111111111),\r\n    // bytes32(0x1001111111111111111111111111111111111111111111111111111111111111),        \r\n    // bytes32(0x1001111111111111111111111111111111111111111111111111111111111111),        \r\n    // bytes32(0x1001111111111111111111111111111111111111111111111111111111111111),\r\n    bytes32(0x1001111111111111111111111111111100000000000000000000000111111111),\r\n    bytes32(0x1001111111111111111111111111111100000000000000000000000111111111),\r\n    bytes32(0x1001111111111111111111111111111100000000000000000000000111111111),\r\n    bytes32(0x1001111111111111111111111111111100000000000000000000000111111111),\r\n    bytes32(0x1001111111111111111111111111111100000000000000000000000111111111),\r\n    bytes32(0x1001111111111111111111111111111111111111111111111111111111111111)   ];\r\n    uint256[] public maliciousUserBlockNumbers;\r\n\r\n    \r\n\r\n\r\n\r\n\r\n\r\n\r\n    struct Block {\r\n        uint256 blockNumber;\r\n        bytes32 data;\r\n    }\r\n\r\n\r\n\r\n\r\n\r\n\r\n    struct BlockInfo {\r\n    uint256 blockNumber;\r\n    bytes32 blockData;\r\n\r\n}\r\n// struct snap{\r\n//     uint256 blocknumber;\r\n    \r\n// }\r\n\r\n\r\n\r\n\r\n\r\n\r\n\r\n    Block[] public blockchain;\r\n    bytes32 data1 = 0x1001111111111111111111111111111100000000000000000000000111111111;\r\n    \r\n\r\n\r\n\r\n\r\n\r\n\r\n\r\n    \r\n    function createBlockchain(uint256 _numBlocks) public {\r\n        numBlocks = _numBlocks;\r\n        for (uint256 i = 0; i < numBlocks; i++) {\r\n            blockchain.push(Block(i, keccak256(abi.encodePacked(i))));\r\n        }\r\n    }\r\n    \r\n\r\n\r\n\r\n\r\n\r\n    function addBlock(uint256 _blockNumber, bytes32 _data) public {\r\n        require(_blockNumber >= numBlocks, \"Block number already exists.\");\r\n        blockchain.push(Block(_blockNumber, _data));\r\n        numBlocks++;\r\n    }\r\n\r\n    // function callBlock()public{\r\n\r\n    // }\r\n\r\n\r\n\r\n\r\n\r\n\r\n    function printBlock(uint256 blockNumber) public view returns (uint256, bytes32) {\r\n        require(blockNumber < numBlocks, \"Block number is out of range.\");\r\n        Block memory blockData = blockchain[blockNumber];\r\n        return (blockData.blockNumber, blockData.data);\r\n    }\r\n    \r\n\r\n\r\n\r\n\r\n\r\n\r\n    function printBlockchain() public view returns (Block[] memory) {\r\n        return blockchain;\r\n    }\r\n\r\n\r\n\r\n\r\n\r\n\r\n\r\n    function stringToUint(string memory s) private pure returns (uint result) {\r\n        bytes memory b = bytes(s);\r\n        uint i;\r\n        result = 0;\r\n        for (i = 0; i < b.length; i++) {\r\n            uint c = uint(uint8(b[i]));\r\n            if (c >= 48 && c <= 57) {\r\n                result = result * 10 + (c - 48);\r\n            }\r\n        }\r\n    \r\n    }\r\n\r\n\r\n\r\n\r\n\r\n\r\n\r\n\r\n    function findMaliciousUser(bytes32 nonUniqueBlockData) public view returns (BlockInfo[] memory) {\r\n    // Convert non-unique block data to binary string\r\n    bytes memory nonUniqueBlockDataBytes = abi.encodePacked(nonUniqueBlockData);\r\n    bytes memory nonUniqueBlockDataBinary = new bytes(nonUniqueBlockDataBytes.length * 8);\r\n    for (uint256 i = 0; i < nonUniqueBlockDataBytes.length; i++) {\r\n        bytes memory bits = byteToBinaryBytes(nonUniqueBlockDataBytes[i]);\r\n        for (uint256 j = 0; j < 8; j++) {\r\n            nonUniqueBlockDataBinary[i * 8 + j] = bits[j];\r\n        }\r\n    }\r\n\r\n    // Iterate over each bit of the binary string and compare with unique blocks\r\n    BlockInfo[] memory differentBlocks = new BlockInfo[](numBlocks);\r\n    uint256 count = 0;\r\n    // uint256 cnt=0;\r\n\r\n\r\n    for (uint256 i = 0; i < numBlocks; i++) {\r\n        bytes32 uniqueBlockData = blockchain[i].data;\r\n        bytes memory uniqueBlockDataBytes = abi.encodePacked(uniqueBlockData);\r\n        bytes memory uniqueBlockDataBinary = new bytes(uniqueBlockDataBytes.length * 8);\r\n        for (uint256 j = 0; j < uniqueBlockDataBytes.length; j++) {\r\n            bytes memory bits = byteToBinaryBytes(uniqueBlockDataBytes[j]);\r\n            for (uint256 k = 0; k < 8; k++) {\r\n                uniqueBlockDataBinary[j * 8 + k] = bits[k];\r\n            }\r\n        }\r\n\r\n        uint256 bitDifference = 0;\r\n        for (uint256 j = 0; j < nonUniqueBlockDataBinary.length && bitDifference <= 7; j++) {\r\n            if (uniqueBlockDataBinary[j] != nonUniqueBlockDataBinary[j]) {\r\n                bitDifference++;\r\n            }\r\n        }\r\n\r\n        if (bitDifference > 7) {\r\n            BlockInfo memory info = BlockInfo(++i, uniqueBlockData);\r\n            // snap memory fo=BlockInfo(++i);\r\n            \r\n            // records[cnt]=fo;\r\n            // differentBlocks[cnt]=fo\r\n\r\n\r\n\r\n\r\n            differentBlocks[count] = info;\r\n            count++;\r\n            // cnt++;\r\n        }\r\n    }\r\n\r\n    // Resize the output array\r\n    BlockInfo[] memory result = new BlockInfo[](count);\r\n    for (uint256 i = 0; i < count; i++) {\r\n        result[i] = differentBlocks[i];\r\n    }\r\n\r\n    return result;\r\n}\r\n\r\n\r\n\r\n\r\n\r\n\r\n\r\n\r\n\r\n\r\n\r\n\r\n\r\n\r\nfunction byteToBinaryBytes(bytes1 b) private pure returns (bytes memory) {\r\n    bytes memory bits = new bytes(8);\r\n    for (uint256 i = 0; i < 8; i++) {\r\n        bits[i] = b & bytes1(uint8(1) << uint8(i)) != 0 ? bytes1('1') : bytes1('0');\r\n\r\n        // bits[i] = b & bytes1(uint8(1) << i) != 0 ? bytes1('1') : bytes1('0');\r\n    }\r\n    return bits;\r\n}\r\n\r\n\r\n\r\n\r\n\r\n\r\n\r\n\r\n   function errorBlocks() public view returns (Block[] memory) {\r\n    Block[] memory uniqueBlocks = new Block[](numBlocks);\r\n    uint256 uniqueBlockCount = 0;\r\n\r\n    Block[] memory nonUniqueBlocks = new Block[](numBlocks);\r\n    uint256 nonUniqueBlockCount = 0;\r\n\r\n    for (uint256 i = 0; i < numBlocks; i++) {\r\n        bool isUnique = true;\r\n        for (uint256 j = 0; j < numBlocks; j++) {\r\n            if (i != j && blockchain[i].data == blockchain[j].data) {\r\n                isUnique = false;\r\n                break;\r\n            }\r\n        }\r\n        if (isUnique) {\r\n            uniqueBlocks[uniqueBlockCount] = blockchain[i];\r\n            uniqueBlockCount++;\r\n        } else {\r\n            nonUniqueBlocks[nonUniqueBlockCount] = blockchain[i];\r\n            nonUniqueBlockCount++;\r\n        }\r\n    }\r\n\r\n    Block[] memory uniqueResult = new Block[](uniqueBlockCount);\r\n    for (uint256 i = 0; i < uniqueBlockCount; i++) {\r\n        uniqueResult[i] = uniqueBlocks[i];\r\n    }\r\n\r\n    Block[] memory nonUniqueResult = new Block[](nonUniqueBlockCount);\r\n    for (uint256 i = 0; i < nonUniqueBlockCount; i++) {\r\n        nonUniqueResult[i] = nonUniqueBlocks[i];\r\n    }\r\n\r\n    return (uniqueResult);\r\n}\r\n\r\n\r\n\r\n\r\n\r\n\r\n\r\n\r\n\r\n \r\n\r\n    function add() public{\r\n    //     bytes32[] memory data = new bytes32[](6);\r\n    // data[0] = 0x1001111111111111111111111111111100000000000000000000000111111111;\r\n    // data[1] = 0x1001111111111111111111111111111100000000000000000000000111111111;\r\n    // data[2] = 0x1001111111111111111111111111111100000000000000000000000111111111;\r\n    // data[3] = 0x1001111111111111111111111111111100000000000000000000000111111111;\r\n    // data[4] = 0x1001111111111111111111111111111111111111111111111111111111111111;\r\n    // data[5] = 0x1001111111111111111111111111111100000011000000000000011111111111;\r\n    for (uint256 i=1;i<data.length;i++)\r\n    {\r\n        addBlock(i,data[i]);\r\n    }\r\n\r\n    }\r\n    \r\n\r\n\r\n\r\n\r\n\r\n\r\n    \r\n   \r\n   \r\n    // bytes32 myBytes32 = 0x1001111111111111111111111111111100000000000000000000000111111111;\r\n    \r\n    \r\n    \r\n    // function malicious()public view {\r\n    // //    bytes32 myBytes32 = bytes32(uint256(keccak256(abi.encodePacked(\"0x1001111111111111111111111111111100000000000000000000000111111111\"))));\r\n    // //    findMaliciousUser(myBytes32);\r\n    // //    emit(myBytes32)\r\n    // }\r\n\r\n\r\n\r\n\r\n\r\n\r\n  function fusion() public view returns (bytes32) {\r\n    bytes32 nonUniqueBlockData=0x1001111111111111111111111111111100000000000000000000000111111111;\r\n    BlockInfo[] memory maliciousBlocks = findMaliciousUser(nonUniqueBlockData);\r\n    bytes32 maxCommonData = blockchain[0].data;\r\n    for (uint i = 0; i < blockchain.length; i++) {\r\n        // Exclude malicious blocks by comparing block numbers\r\n        bool excludeBlock = false;\r\n        for (uint j = 0; j < maliciousBlocks.length; j++) {\r\n            if (maliciousBlocks[j].blockNumber == i) {\r\n                excludeBlock = true;\r\n                break;\r\n            }\r\n        }\r\n        if (excludeBlock) {\r\n            continue;\r\n        }\r\n\r\n        maxCommonData &= blockchain[i].data;\r\n    }\r\n    return maxCommonData;\r\n}\r\n\r\n\r\n\r\n    // function ff() public view returns (bytes32){\r\n    //     uint256 c=0;\r\n    //     bytes32 maxCommonData = data[0];\r\n\r\n    \r\n\r\n\r\n\r\n    //     for(uint i=1;i<data.length;i++){\r\n    //         for(uint j=0;j<records.length;j++){\r\n    //             if(i-1==j){\r\n    //                 c++;\r\n    //             }\r\n    //             else{\r\n    //                 maxCommonData &= data[i];\r\n    //             }    \r\n\r\n    //         }\r\n\r\n    //     }\r\n    //     return maxCommonData;\r\n    // }\r\n\r\n\r\n\r\n\r\n\r\nfunction main()public{\r\n        add();\r\n        printBlockchain();\r\n        errorBlocks();\r\n        findMaliciousUser(0x1001111111111111111111111111111100000000000000000000000111111111);\r\n        //yet to invalidate \r\n        printBlockchain();\r\n        fusion();\r\n\r\n    }\r\n   \r\n\r\n\r\n\r\n    // const instance=await SimpleBlockchain.deployed()// \r\n    //0x100 29 1's 23 0's 9 1's\r\n\r\n}",
  "sourcePath": "C:\\Users\\Sayan\\Desktop\\projecttry\\try4\\contracts\\Blockchain.sol",
  "compiler": {
    "name": "solc",
    "version": "0.8.18+commit.87f61d96.Emscripten.clang"
  },
  "schemaVersion": "3.4.11",
  "updatedAt": "2023-05-21T10:29:49.827Z",
  "networkType": "ethereum",
  "devdoc": {
    "kind": "dev",
    "methods": {},
    "version": 1
  },
  "userdoc": {
    "kind": "user",
    "methods": {},
    "version": 1
  }
}